S011000069326320747269616C2E73726563D9
S11300000C9456000C946B000C946B000C946B00D5
S11300100C946B000C946B000C946B000C946B00B0
S11300200C946B000C946B000C946B000C946B00A0
S11300300C946B000C946B000C946B000C946B0090
S11300400C946B000C946B000C946B000C946B0080
S11300500C946B000C946B000C946B000C946B0070
S11300600C946B000C946B000C946B000C946B0060
S11300700C946B000C946B000C946B000C946B0050
S11300800C946B000C946B000C946B000C946B0040
S11300900C946B000C946B000C946B000C946B0030
S11300A00C946B000C946B000C946B0011241FBE19
S11300B0CFEFCDBFDFE2DEBF10E2A0E0B0E2E2EEC0
S11300C0F2E002C005900D92A230B107D9F70E9468
S11300D08B000C946F010C940000E0ECF9E0808339
S11300E0818185FD03C0818186FFFDCFE0ECF9E0CD
S11300F08181806481830895CF93DF93EC018881AB
S1130100882331F021960E946D0089918111FBCFE3
S1130110DF91CF91089580E88FBFE0E5F0E0808122
S113012082608083818181FFFDCF88ED84BF81E07F
S113013080934000E0E5F0E080818E7F80838081C1
S113014084608083818182FFFDCFE0E5F0E0168248
S1130150E0E6F0E0808181608083E0E6F6E080E81C
S11301608183868580618687E0ECF9E08CE0868374
S113017080E4878383818B7F838383818861838306
S113018083E084838481877F8483158282818F7C4A
S1130190806182838BE980938504E0E4F6E088E360
S11301A0808B818BA1E8B4E08C91886B8C93A4E85C
S11301B0B4E085E08C93C2E8D4E0888181608883D0
S11301C082E0809383048081806480838C91837037
S11301D08130F9F4E3E8F4E08083A6E8B4E09CEE2F
S11301E09C9390EA9C9380838DEE8C9383E0808330
S11301F0809187044AE050E0C0E0D0E0BE0190E086
S11302000E942F01CE010E947C0080E090E20E94B7
S11302107C00C0E4D6E007E814E08C818F7B8C83FB
S11302202FEF83EC99E0215080409040E1F700C02B
S113023000008C8180648C83EFEFF3EC29E0E150C3
S1130240F0402040E1F700C00000F80180814AE05E
S113025050E060E070E090E00E942F01DECF453274
S1130260510520F4423010F00C943A01FB01108245
S1130270CB010895BB274A3031F4992322F4BDE21F
S1130280909581959F4F0C944601BB27FB01552700
S1130290AA27880F991FAA1FA41710F0A41B8395DF
S11302A05051B9F7A05DAA3308F0A95DA193009756
S11302B079F7B111B1931192CB010C945F01DC0178
S11302C0FC01672F71917723E1F7329704C07C9189
S11302D06D9370836291AE17BF07C8F30895F894C5
S10502E0FFCF4A
S10502E20A000C
S9030000FC
